{
  "_format": "hh-sol-artifact-1",
  "contractName": "OpenRPG",
  "sourceName": "contracts/OpenRPG.sol",
  "abi": [
    {
      "inputs": [
        {
          "internalType": "address",
          "name": "_Oracle",
          "type": "address"
        }
      ],
      "stateMutability": "nonpayable",
      "type": "constructor"
    },
    {
      "anonymous": false,
      "inputs": [
        {
          "indexed": true,
          "internalType": "address",
          "name": "owner",
          "type": "address"
        },
        {
          "indexed": true,
          "internalType": "address",
          "name": "approved",
          "type": "address"
        },
        {
          "indexed": true,
          "internalType": "uint256",
          "name": "tokenId",
          "type": "uint256"
        }
      ],
      "name": "Approval",
      "type": "event"
    },
    {
      "anonymous": false,
      "inputs": [
        {
          "indexed": true,
          "internalType": "address",
          "name": "owner",
          "type": "address"
        },
        {
          "indexed": true,
          "internalType": "address",
          "name": "operator",
          "type": "address"
        },
        {
          "indexed": false,
          "internalType": "bool",
          "name": "approved",
          "type": "bool"
        }
      ],
      "name": "ApprovalForAll",
      "type": "event"
    },
    {
      "anonymous": false,
      "inputs": [
        {
          "indexed": true,
          "internalType": "address",
          "name": "previousOwner",
          "type": "address"
        },
        {
          "indexed": true,
          "internalType": "address",
          "name": "newOwner",
          "type": "address"
        }
      ],
      "name": "OwnershipTransferred",
      "type": "event"
    },
    {
      "anonymous": false,
      "inputs": [
        {
          "indexed": true,
          "internalType": "address",
          "name": "from",
          "type": "address"
        },
        {
          "indexed": true,
          "internalType": "address",
          "name": "to",
          "type": "address"
        },
        {
          "indexed": true,
          "internalType": "uint256",
          "name": "tokenId",
          "type": "uint256"
        }
      ],
      "name": "Transfer",
      "type": "event"
    },
    {
      "inputs": [
        {
          "internalType": "uint256[]",
          "name": "tokenIDs",
          "type": "uint256[]"
        }
      ],
      "name": "Burn",
      "outputs": [],
      "stateMutability": "payable",
      "type": "function"
    },
    {
      "inputs": [
        {
          "internalType": "address",
          "name": "to",
          "type": "address"
        },
        {
          "internalType": "uint256",
          "name": "token_id",
          "type": "uint256"
        }
      ],
      "name": "Mint",
      "outputs": [
        {
          "internalType": "uint256",
          "name": "newTokenID",
          "type": "uint256"
        }
      ],
      "stateMutability": "nonpayable",
      "type": "function"
    },
    {
      "inputs": [
        {
          "internalType": "uint256",
          "name": "token_id",
          "type": "uint256"
        },
        {
          "internalType": "string",
          "name": "uri",
          "type": "string"
        }
      ],
      "name": "SetTokenURI",
      "outputs": [],
      "stateMutability": "nonpayable",
      "type": "function"
    },
    {
      "inputs": [
        {
          "internalType": "address",
          "name": "to",
          "type": "address"
        },
        {
          "internalType": "uint256",
          "name": "tokenId",
          "type": "uint256"
        }
      ],
      "name": "approve",
      "outputs": [],
      "stateMutability": "nonpayable",
      "type": "function"
    },
    {
      "inputs": [
        {
          "internalType": "address",
          "name": "owner",
          "type": "address"
        }
      ],
      "name": "balanceOf",
      "outputs": [
        {
          "internalType": "uint256",
          "name": "",
          "type": "uint256"
        }
      ],
      "stateMutability": "view",
      "type": "function"
    },
    {
      "inputs": [],
      "name": "contractURI",
      "outputs": [
        {
          "internalType": "string",
          "name": "",
          "type": "string"
        }
      ],
      "stateMutability": "view",
      "type": "function"
    },
    {
      "inputs": [],
      "name": "deadlineIsOver",
      "outputs": [
        {
          "internalType": "bool",
          "name": "",
          "type": "bool"
        }
      ],
      "stateMutability": "nonpayable",
      "type": "function"
    },
    {
      "inputs": [],
      "name": "getAddress",
      "outputs": [
        {
          "internalType": "address",
          "name": "",
          "type": "address"
        }
      ],
      "stateMutability": "nonpayable",
      "type": "function"
    },
    {
      "inputs": [
        {
          "internalType": "uint256",
          "name": "tokenId",
          "type": "uint256"
        }
      ],
      "name": "getApproved",
      "outputs": [
        {
          "internalType": "address",
          "name": "",
          "type": "address"
        }
      ],
      "stateMutability": "view",
      "type": "function"
    },
    {
      "inputs": [],
      "name": "getCurrentlylyMintedBSO",
      "outputs": [
        {
          "internalType": "uint256",
          "name": "",
          "type": "uint256"
        }
      ],
      "stateMutability": "view",
      "type": "function"
    },
    {
      "inputs": [],
      "name": "getDeadLine",
      "outputs": [
        {
          "internalType": "uint256",
          "name": "",
          "type": "uint256"
        }
      ],
      "stateMutability": "nonpayable",
      "type": "function"
    },
    {
      "inputs": [],
      "name": "getSeason",
      "outputs": [
        {
          "internalType": "uint256",
          "name": "",
          "type": "uint256"
        }
      ],
      "stateMutability": "pure",
      "type": "function"
    },
    {
      "inputs": [],
      "name": "getTotalBurned",
      "outputs": [
        {
          "internalType": "uint256",
          "name": "",
          "type": "uint256"
        }
      ],
      "stateMutability": "view",
      "type": "function"
    },
    {
      "inputs": [],
      "name": "getTotalMintedASO",
      "outputs": [
        {
          "internalType": "uint256",
          "name": "",
          "type": "uint256"
        }
      ],
      "stateMutability": "view",
      "type": "function"
    },
    {
      "inputs": [
        {
          "internalType": "address",
          "name": "owner",
          "type": "address"
        },
        {
          "internalType": "address",
          "name": "operator",
          "type": "address"
        }
      ],
      "name": "isApprovedForAll",
      "outputs": [
        {
          "internalType": "bool",
          "name": "",
          "type": "bool"
        }
      ],
      "stateMutability": "view",
      "type": "function"
    },
    {
      "inputs": [],
      "name": "name",
      "outputs": [
        {
          "internalType": "string",
          "name": "",
          "type": "string"
        }
      ],
      "stateMutability": "view",
      "type": "function"
    },
    {
      "inputs": [],
      "name": "owner",
      "outputs": [
        {
          "internalType": "address",
          "name": "",
          "type": "address"
        }
      ],
      "stateMutability": "view",
      "type": "function"
    },
    {
      "inputs": [
        {
          "internalType": "uint256",
          "name": "tokenId",
          "type": "uint256"
        }
      ],
      "name": "ownerOf",
      "outputs": [
        {
          "internalType": "address",
          "name": "",
          "type": "address"
        }
      ],
      "stateMutability": "view",
      "type": "function"
    },
    {
      "inputs": [],
      "name": "renounceOwnership",
      "outputs": [],
      "stateMutability": "nonpayable",
      "type": "function"
    },
    {
      "inputs": [
        {
          "internalType": "address",
          "name": "from",
          "type": "address"
        },
        {
          "internalType": "address",
          "name": "to",
          "type": "address"
        },
        {
          "internalType": "uint256",
          "name": "tokenId",
          "type": "uint256"
        }
      ],
      "name": "safeTransferFrom",
      "outputs": [],
      "stateMutability": "nonpayable",
      "type": "function"
    },
    {
      "inputs": [
        {
          "internalType": "address",
          "name": "from",
          "type": "address"
        },
        {
          "internalType": "address",
          "name": "to",
          "type": "address"
        },
        {
          "internalType": "uint256",
          "name": "tokenId",
          "type": "uint256"
        },
        {
          "internalType": "bytes",
          "name": "_data",
          "type": "bytes"
        }
      ],
      "name": "safeTransferFrom",
      "outputs": [],
      "stateMutability": "nonpayable",
      "type": "function"
    },
    {
      "inputs": [
        {
          "internalType": "address",
          "name": "operator",
          "type": "address"
        },
        {
          "internalType": "bool",
          "name": "approved",
          "type": "bool"
        }
      ],
      "name": "setApprovalForAll",
      "outputs": [],
      "stateMutability": "nonpayable",
      "type": "function"
    },
    {
      "inputs": [
        {
          "internalType": "address",
          "name": "_Factory",
          "type": "address"
        }
      ],
      "name": "setFactory",
      "outputs": [],
      "stateMutability": "nonpayable",
      "type": "function"
    },
    {
      "inputs": [
        {
          "internalType": "address",
          "name": "_Oracle",
          "type": "address"
        }
      ],
      "name": "setOracle",
      "outputs": [],
      "stateMutability": "nonpayable",
      "type": "function"
    },
    {
      "inputs": [
        {
          "internalType": "bytes4",
          "name": "interfaceId",
          "type": "bytes4"
        }
      ],
      "name": "supportsInterface",
      "outputs": [
        {
          "internalType": "bool",
          "name": "",
          "type": "bool"
        }
      ],
      "stateMutability": "view",
      "type": "function"
    },
    {
      "inputs": [],
      "name": "symbol",
      "outputs": [
        {
          "internalType": "string",
          "name": "",
          "type": "string"
        }
      ],
      "stateMutability": "view",
      "type": "function"
    },
    {
      "inputs": [
        {
          "internalType": "uint256",
          "name": "tokenId",
          "type": "uint256"
        }
      ],
      "name": "tokenURI",
      "outputs": [
        {
          "internalType": "string",
          "name": "",
          "type": "string"
        }
      ],
      "stateMutability": "view",
      "type": "function"
    },
    {
      "inputs": [],
      "name": "totalSupply",
      "outputs": [
        {
          "internalType": "uint256",
          "name": "",
          "type": "uint256"
        }
      ],
      "stateMutability": "view",
      "type": "function"
    },
    {
      "inputs": [
        {
          "internalType": "address",
          "name": "from",
          "type": "address"
        },
        {
          "internalType": "address",
          "name": "to",
          "type": "address"
        },
        {
          "internalType": "uint256",
          "name": "tokenId",
          "type": "uint256"
        }
      ],
      "name": "transferFrom",
      "outputs": [],
      "stateMutability": "nonpayable",
      "type": "function"
    },
    {
      "inputs": [
        {
          "internalType": "address",
          "name": "newOwner",
          "type": "address"
        }
      ],
      "name": "transferOwnership",
      "outputs": [],
      "stateMutability": "nonpayable",
      "type": "function"
    },
    {
      "inputs": [
        {
          "internalType": "address",
          "name": "from",
          "type": "address"
        },
        {
          "internalType": "address",
          "name": "to",
          "type": "address"
        },
        {
          "internalType": "uint256",
          "name": "token_id",
          "type": "uint256"
        }
      ],
      "name": "transferTokenTo",
      "outputs": [
        {
          "internalType": "address",
          "name": "_from",
          "type": "address"
        },
        {
          "internalType": "address",
          "name": "_to",
          "type": "address"
        },
        {
          "internalType": "uint256",
          "name": "_token_id",
          "type": "uint256"
        }
      ],
      "stateMutability": "nonpayable",
      "type": "function"
    },
    {
      "inputs": [],
      "name": "userCanMint",
      "outputs": [
        {
          "internalType": "bool",
          "name": "",
          "type": "bool"
        }
      ],
      "stateMutability": "nonpayable",
      "type": "function"
    }
  ],
  "bytecode": "0x60806040526000600c60006101000a81548160ff0219169083151502179055503480156200002c57600080fd5b506040516200490b3803806200490b833981810160405281019062000052919062000351565b6040518060400160405280600881526020017f4f70656e205250470000000000000000000000000000000000000000000000008152506040518060400160405280600481526020017f4f525047000000000000000000000000000000000000000000000000000000008152508160009080519060200190620000d69291906200028a565b508060019080519060200190620000ef9291906200028a565b5050506200011262000106620001bc60201b60201c565b620001c460201b60201c565b6000600860006101000a81548173ffffffffffffffffffffffffffffffffffffffff021916908373ffffffffffffffffffffffffffffffffffffffff16021790555080600960006101000a81548173ffffffffffffffffffffffffffffffffffffffff021916908373ffffffffffffffffffffffffffffffffffffffff160217905550612710600b81905550621baf8042620001af919062000383565b60118190555050620004d1565b600033905090565b6000600760009054906101000a900473ffffffffffffffffffffffffffffffffffffffff16905081600760006101000a81548173ffffffffffffffffffffffffffffffffffffffff021916908373ffffffffffffffffffffffffffffffffffffffff1602179055508173ffffffffffffffffffffffffffffffffffffffff168173ffffffffffffffffffffffffffffffffffffffff167f8be0079c531659141344cd1fd0a4f28419497f9722a3daafe3b4186f6b6457e060405160405180910390a35050565b82805462000298906200041e565b90600052602060002090601f016020900481019282620002bc576000855562000308565b82601f10620002d757805160ff191683800117855562000308565b8280016001018555821562000308579182015b8281111562000307578251825591602001919060010190620002ea565b5b5090506200031791906200031b565b5090565b5b80821115620003365760008160009055506001016200031c565b5090565b6000815190506200034b81620004b7565b92915050565b6000602082840312156200036a5762000369620004b2565b5b60006200037a848285016200033a565b91505092915050565b6000620003908262000414565b91506200039d8362000414565b9250827fffffffffffffffffffffffffffffffffffffffffffffffffffffffffffffffff03821115620003d557620003d462000454565b5b828201905092915050565b6000620003ed82620003f4565b9050919050565b600073ffffffffffffffffffffffffffffffffffffffff82169050919050565b6000819050919050565b600060028204905060018216806200043757607f821691505b602082108114156200044e576200044d62000483565b5b50919050565b7f4e487b7100000000000000000000000000000000000000000000000000000000600052601160045260246000fd5b7f4e487b7100000000000000000000000000000000000000000000000000000000600052602260045260246000fd5b600080fd5b620004c281620003e0565b8114620004ce57600080fd5b50565b61442a80620004e16000396000f3fe6080604052600436106101e35760003560e01c80637a445c0411610102578063c319fd2111610095578063e5fb684511610064578063e5fb6845146106e9578063e8a3d48514610714578063e985e9c51461073f578063f2fde38b1461077c576101e3565b8063c319fd211461062d578063c61ee94014610658578063c87b56dd14610683578063d2d827dd146106c0576101e3565b806395d89b41116100d157806395d89b4114610585578063a22cb465146105b0578063b55cd04b146105d9578063b88d4fde14610604576101e3565b80637a445c04146104ea5780637adbf973146105155780638da5cb5b1461053e5780638f84367f14610569576101e3565b806338cc48311161017a57806361d0acbb1161014957806361d0acbb1461042e5780636352211e1461045957806370a0823114610496578063715018a6146104d3576101e3565b806338cc48311461038657806342842e0e146103b157806354c9d273146103da5780635bb4780814610405576101e3565b80630d172a01116101b65780630d172a01146102b65780630f6798a5146102f557806318160ddd1461033257806323b872dd1461035d576101e3565b806301ffc9a7146101e857806306fdde0314610225578063081812fc14610250578063095ea7b31461028d575b600080fd5b3480156101f457600080fd5b5061020f600480360381019061020a9190612e38565b6107a5565b60405161021c919061345e565b60405180910390f35b34801561023157600080fd5b5061023a610887565b6040516102479190613479565b60405180910390f35b34801561025c57600080fd5b5061027760048036038101906102729190612e92565b610919565b60405161028491906133c0565b60405180910390f35b34801561029957600080fd5b506102b460048036038101906102af9190612daf565b61099e565b005b3480156102c257600080fd5b506102dd60048036038101906102d89190612c99565b610ab6565b6040516102ec939291906133db565b60405180910390f35b34801561030157600080fd5b5061031c60048036038101906103179190612daf565b610bb6565b60405161032991906137fb565b60405180910390f35b34801561033e57600080fd5b50610347610d47565b60405161035491906137fb565b60405180910390f35b34801561036957600080fd5b50610384600480360381019061037f9190612c99565b610d7d565b005b34801561039257600080fd5b5061039b610ddd565b6040516103a891906133c0565b60405180910390f35b3480156103bd57600080fd5b506103d860048036038101906103d39190612c99565b610de5565b005b3480156103e657600080fd5b506103ef610e05565b6040516103fc91906137fb565b60405180910390f35b34801561041157600080fd5b5061042c60048036038101906104279190612c2c565b610e0e565b005b34801561043a57600080fd5b50610443610f0f565b60405161045091906137fb565b60405180910390f35b34801561046557600080fd5b50610480600480360381019061047b9190612e92565b610f19565b60405161048d91906133c0565b60405180910390f35b3480156104a257600080fd5b506104bd60048036038101906104b89190612c2c565b610fcb565b6040516104ca91906137fb565b60405180910390f35b3480156104df57600080fd5b506104e8611083565b005b3480156104f657600080fd5b506104ff61110b565b60405161050c91906137fb565b60405180910390f35b34801561052157600080fd5b5061053c60048036038101906105379190612c2c565b61111c565b005b34801561054a57600080fd5b506105536111dc565b60405161056091906133c0565b60405180910390f35b610583600480360381019061057e9190612def565b611206565b005b34801561059157600080fd5b5061059a611387565b6040516105a79190613479565b60405180910390f35b3480156105bc57600080fd5b506105d760048036038101906105d29190612d6f565b611419565b005b3480156105e557600080fd5b506105ee61159a565b6040516105fb91906137fb565b60405180910390f35b34801561061057600080fd5b5061062b60048036038101906106269190612cec565b6115ab565b005b34801561063957600080fd5b5061064261160d565b60405161064f91906137fb565b60405180910390f35b34801561066457600080fd5b5061066d61161e565b60405161067a919061345e565b60405180910390f35b34801561068f57600080fd5b506106aa60048036038101906106a59190612e92565b611670565b6040516106b79190613479565b60405180910390f35b3480156106cc57600080fd5b506106e760048036038101906106e29190612ebf565b6117c2565b005b3480156106f557600080fd5b506106fe61193a565b60405161070b919061345e565b60405180910390f35b34801561072057600080fd5b50610729611956565b6040516107369190613479565b60405180910390f35b34801561074b57600080fd5b5061076660048036038101906107619190612c59565b611976565b604051610773919061345e565b60405180910390f35b34801561078857600080fd5b506107a3600480360381019061079e9190612c2c565b611a0a565b005b60007f80ac58cd000000000000000000000000000000000000000000000000000000007bffffffffffffffffffffffffffffffffffffffffffffffffffffffff1916827bffffffffffffffffffffffffffffffffffffffffffffffffffffffff1916148061087057507f5b5e139f000000000000000000000000000000000000000000000000000000007bffffffffffffffffffffffffffffffffffffffffffffffffffffffff1916827bffffffffffffffffffffffffffffffffffffffffffffffffffffffff1916145b80610880575061087f82611b02565b5b9050919050565b60606000805461089690613a7d565b80601f01602080910402602001604051908101604052809291908181526020018280546108c290613a7d565b801561090f5780601f106108e45761010080835404028352916020019161090f565b820191906000526020600020905b8154815290600101906020018083116108f257829003601f168201915b5050505050905090565b600061092482611b6c565b610963576040517f08c379a000000000000000000000000000000000000000000000000000000000815260040161095a906136bb565b60405180910390fd5b6004600083815260200190815260200160002060009054906101000a900473ffffffffffffffffffffffffffffffffffffffff169050919050565b60006109a982610f19565b90508073ffffffffffffffffffffffffffffffffffffffff168373ffffffffffffffffffffffffffffffffffffffff161415610a1a576040517f08c379a0000000000000000000000000000000000000000000000000000000008152600401610a11906137bb565b60405180910390fd5b8073ffffffffffffffffffffffffffffffffffffffff16610a39611bd8565b73ffffffffffffffffffffffffffffffffffffffff161480610a685750610a6781610a62611bd8565b611976565b5b610aa7576040517f08c379a0000000000000000000000000000000000000000000000000000000008152600401610a9e906135fb565b60405180910390fd5b610ab18383611be0565b505050565b60008060008073ffffffffffffffffffffffffffffffffffffffff168673ffffffffffffffffffffffffffffffffffffffff1614158015610b245750600073ffffffffffffffffffffffffffffffffffffffff168573ffffffffffffffffffffffffffffffffffffffff1614155b610b63576040517f08c379a0000000000000000000000000000000000000000000000000000000008152600401610b5a9061371b565b60405180910390fd5b610ba48686866040518060400160405280601081526020017f546f6b656e205472616e736665726564000000000000000000000000000000008152506115ab565b85858592509250925093509350939050565b60008073ffffffffffffffffffffffffffffffffffffffff16600860009054906101000a900473ffffffffffffffffffffffffffffffffffffffff1673ffffffffffffffffffffffffffffffffffffffff161415610c49576040517f08c379a0000000000000000000000000000000000000000000000000000000008152600401610c409061379b565b60405180910390fd5b600860009054906101000a900473ffffffffffffffffffffffffffffffffffffffff1673ffffffffffffffffffffffffffffffffffffffff163373ffffffffffffffffffffffffffffffffffffffff1614610cd9576040517f08c379a0000000000000000000000000000000000000000000000000000000008152600401610cd0906135db565b60405180910390fd5b6011544210610cf157610cec600f611c99565b610cfc565b610cfb600d611c99565b5b610d068383611caf565b600b54610d13600d611ccd565b10610d34576001600c60006101000a81548160ff0219169083151502179055505b610d3e6010611c99565b81905092915050565b6000801515600c60009054906101000a900460ff1615151415610d6e57600b549050610d7a565b610d786010611ccd565b505b90565b610d8e610d88611bd8565b82611cdb565b610dcd576040517f08c379a0000000000000000000000000000000000000000000000000000000008152600401610dc4906137db565b60405180910390fd5b610dd8838383611db9565b505050565b600030905090565b610e00838383604051806020016040528060008152506115ab565b505050565b60006001905090565b610e16611bd8565b73ffffffffffffffffffffffffffffffffffffffff16610e346111dc565b73ffffffffffffffffffffffffffffffffffffffff1614610e8a576040517f08c379a0000000000000000000000000000000000000000000000000000000008152600401610e81906136fb565b60405180910390fd5b80600860006101000a81548173ffffffffffffffffffffffffffffffffffffffff021916908373ffffffffffffffffffffffffffffffffffffffff16021790555080600a60006101000a81548173ffffffffffffffffffffffffffffffffffffffff021916908373ffffffffffffffffffffffffffffffffffffffff16021790555050565b6000601154905090565b6000806002600084815260200190815260200160002060009054906101000a900473ffffffffffffffffffffffffffffffffffffffff169050600073ffffffffffffffffffffffffffffffffffffffff168173ffffffffffffffffffffffffffffffffffffffff161415610fc2576040517f08c379a0000000000000000000000000000000000000000000000000000000008152600401610fb99061363b565b60405180910390fd5b80915050919050565b60008073ffffffffffffffffffffffffffffffffffffffff168273ffffffffffffffffffffffffffffffffffffffff16141561103c576040517f08c379a00000000000000000000000000000000000000000000000000000000081526004016110339061361b565b60405180910390fd5b600360008373ffffffffffffffffffffffffffffffffffffffff1673ffffffffffffffffffffffffffffffffffffffff168152602001908152602001600020549050919050565b61108b611bd8565b73ffffffffffffffffffffffffffffffffffffffff166110a96111dc565b73ffffffffffffffffffffffffffffffffffffffff16146110ff576040517f08c379a00000000000000000000000000000000000000000000000000000000081526004016110f6906136fb565b60405180910390fd5b6111096000612015565b565b6000611117600f611ccd565b905090565b611124611bd8565b73ffffffffffffffffffffffffffffffffffffffff166111426111dc565b73ffffffffffffffffffffffffffffffffffffffff1614611198576040517f08c379a000000000000000000000000000000000000000000000000000000000815260040161118f906136fb565b60405180910390fd5b80600960006101000a81548173ffffffffffffffffffffffffffffffffffffffff021916908373ffffffffffffffffffffffffffffffffffffffff16021790555050565b6000600760009054906101000a900473ffffffffffffffffffffffffffffffffffffffff16905090565b60011515600c60009054906101000a900460ff1615151461125c576040517f08c379a00000000000000000000000000000000000000000000000000000000081526004016112539061351b565b60405180910390fd5b60058151146112a0576040517f08c379a0000000000000000000000000000000000000000000000000000000008152600401611297906136db565b60405180910390fd5b60005b60058110156112f6576112b6600e611c99565b6112c060106120db565b6112e38282815181106112d6576112d5613be7565b5b6020026020010151612137565b80806112ee90613ae0565b9150506112a3565b50600a60009054906101000a900473ffffffffffffffffffffffffffffffffffffffff1673ffffffffffffffffffffffffffffffffffffffff16633c3284d1336040518263ffffffff1660e01b815260040161135291906133c0565b600060405180830381600087803b15801561136c57600080fd5b505af1158015611380573d6000803e3d6000fd5b5050505050565b60606001805461139690613a7d565b80601f01602080910402602001604051908101604052809291908181526020018280546113c290613a7d565b801561140f5780601f106113e45761010080835404028352916020019161140f565b820191906000526020600020905b8154815290600101906020018083116113f257829003601f168201915b5050505050905090565b611421611bd8565b73ffffffffffffffffffffffffffffffffffffffff168273ffffffffffffffffffffffffffffffffffffffff16141561148f576040517f08c379a00000000000000000000000000000000000000000000000000000000081526004016114869061355b565b60405180910390fd5b806005600061149c611bd8565b73ffffffffffffffffffffffffffffffffffffffff1673ffffffffffffffffffffffffffffffffffffffff16815260200190815260200160002060008473ffffffffffffffffffffffffffffffffffffffff1673ffffffffffffffffffffffffffffffffffffffff16815260200190815260200160002060006101000a81548160ff0219169083151502179055508173ffffffffffffffffffffffffffffffffffffffff16611549611bd8565b73ffffffffffffffffffffffffffffffffffffffff167f17307eab39ab6107e8899845ad3d59bd9653f200f220920489ca2b5937696c318360405161158e919061345e565b60405180910390a35050565b60006115a6600e611ccd565b905090565b6115bc6115b6611bd8565b83611cdb565b6115fb576040517f08c379a00000000000000000000000000000000000000000000000000000000081526004016115f2906137db565b60405180910390fd5b6116078484848461218a565b50505050565b6000611619600d611ccd565b905090565b6000600b5461162d600d611ccd565b10801561163b575060115442105b801561165a575060001515600c60009054906101000a900460ff161515145b15611668576001905061166d565b600090505b90565b606061167b82611b6c565b6116ba576040517f08c379a00000000000000000000000000000000000000000000000000000000081526004016116b19061369b565b60405180910390fd5b60006006600084815260200190815260200160002080546116da90613a7d565b80601f016020809104026020016040519081016040528092919081815260200182805461170690613a7d565b80156117535780601f1061172857610100808354040283529160200191611753565b820191906000526020600020905b81548152906001019060200180831161173657829003601f168201915b5050505050905060006117646121e6565b905060008151141561177a5781925050506117bd565b6000825111156117af57808260405160200161179792919061339c565b604051602081830303815290604052925050506117bd565b6117b8846121fd565b925050505b919050565b600073ffffffffffffffffffffffffffffffffffffffff16600960009054906101000a900473ffffffffffffffffffffffffffffffffffffffff1673ffffffffffffffffffffffffffffffffffffffff161415611854576040517f08c379a000000000000000000000000000000000000000000000000000000000815260040161184b906135bb565b60405180910390fd5b600960009054906101000a900473ffffffffffffffffffffffffffffffffffffffff1673ffffffffffffffffffffffffffffffffffffffff163373ffffffffffffffffffffffffffffffffffffffff16146118e4576040517f08c379a00000000000000000000000000000000000000000000000000000000081526004016118db9061357b565b60405180910390fd5b6118ed82611b6c565b61192c576040517f08c379a00000000000000000000000000000000000000000000000000000000081526004016119239061375b565b60405180910390fd5b61193682826122a4565b5050565b6000601154421061194e5760019050611953565b600090505b90565b60606040518060800160405280605081526020016143a560509139905090565b6000600560008473ffffffffffffffffffffffffffffffffffffffff1673ffffffffffffffffffffffffffffffffffffffff16815260200190815260200160002060008373ffffffffffffffffffffffffffffffffffffffff1673ffffffffffffffffffffffffffffffffffffffff16815260200190815260200160002060009054906101000a900460ff16905092915050565b611a12611bd8565b73ffffffffffffffffffffffffffffffffffffffff16611a306111dc565b73ffffffffffffffffffffffffffffffffffffffff1614611a86576040517f08c379a0000000000000000000000000000000000000000000000000000000008152600401611a7d906136fb565b60405180910390fd5b600073ffffffffffffffffffffffffffffffffffffffff168173ffffffffffffffffffffffffffffffffffffffff161415611af6576040517f08c379a0000000000000000000000000000000000000000000000000000000008152600401611aed906134db565b60405180910390fd5b611aff81612015565b50565b60007f01ffc9a7000000000000000000000000000000000000000000000000000000007bffffffffffffffffffffffffffffffffffffffffffffffffffffffff1916827bffffffffffffffffffffffffffffffffffffffffffffffffffffffff1916149050919050565b60008073ffffffffffffffffffffffffffffffffffffffff166002600084815260200190815260200160002060009054906101000a900473ffffffffffffffffffffffffffffffffffffffff1673ffffffffffffffffffffffffffffffffffffffff1614159050919050565b600033905090565b816004600083815260200190815260200160002060006101000a81548173ffffffffffffffffffffffffffffffffffffffff021916908373ffffffffffffffffffffffffffffffffffffffff160217905550808273ffffffffffffffffffffffffffffffffffffffff16611c5383610f19565b73ffffffffffffffffffffffffffffffffffffffff167f8c5be1e5ebec7d5bd14f71427d1e84f3dd0314c0f7b2291e5b200ac8c7c3b92560405160405180910390a45050565b6001816000016000828254019250508190555050565b611cc9828260405180602001604052806000815250612318565b5050565b600081600001549050919050565b6000611ce682611b6c565b611d25576040517f08c379a0000000000000000000000000000000000000000000000000000000008152600401611d1c9061359b565b60405180910390fd5b6000611d3083610f19565b90508073ffffffffffffffffffffffffffffffffffffffff168473ffffffffffffffffffffffffffffffffffffffff161480611d9f57508373ffffffffffffffffffffffffffffffffffffffff16611d8784610919565b73ffffffffffffffffffffffffffffffffffffffff16145b80611db05750611daf8185611976565b5b91505092915050565b8273ffffffffffffffffffffffffffffffffffffffff16611dd982610f19565b73ffffffffffffffffffffffffffffffffffffffff1614611e2f576040517f08c379a0000000000000000000000000000000000000000000000000000000008152600401611e269061373b565b60405180910390fd5b600073ffffffffffffffffffffffffffffffffffffffff168273ffffffffffffffffffffffffffffffffffffffff161415611e9f576040517f08c379a0000000000000000000000000000000000000000000000000000000008152600401611e969061353b565b60405180910390fd5b611eaa838383612373565b611eb5600082611be0565b6001600360008573ffffffffffffffffffffffffffffffffffffffff1673ffffffffffffffffffffffffffffffffffffffff1681526020019081526020016000206000828254611f059190613993565b925050819055506001600360008473ffffffffffffffffffffffffffffffffffffffff1673ffffffffffffffffffffffffffffffffffffffff1681526020019081526020016000206000828254611f5c919061390c565b92505081905550816002600083815260200190815260200160002060006101000a81548173ffffffffffffffffffffffffffffffffffffffff021916908373ffffffffffffffffffffffffffffffffffffffff160217905550808273ffffffffffffffffffffffffffffffffffffffff168473ffffffffffffffffffffffffffffffffffffffff167fddf252ad1be2c89b69c2b068fc378daa952ba7f163c4a11628f55a4df523b3ef60405160405180910390a4505050565b6000600760009054906101000a900473ffffffffffffffffffffffffffffffffffffffff16905081600760006101000a81548173ffffffffffffffffffffffffffffffffffffffff021916908373ffffffffffffffffffffffffffffffffffffffff1602179055508173ffffffffffffffffffffffffffffffffffffffff168173ffffffffffffffffffffffffffffffffffffffff167f8be0079c531659141344cd1fd0a4f28419497f9722a3daafe3b4186f6b6457e060405160405180910390a35050565b60008160000154905060008111612127576040517f08c379a000000000000000000000000000000000000000000000000000000000815260040161211e9061349b565b60405180910390fd5b6001810382600001819055505050565b61214081612378565b600060066000838152602001908152602001600020805461216090613a7d565b905014612187576006600082815260200190815260200160002060006121869190612962565b5b50565b612195848484611db9565b6121a184848484612489565b6121e0576040517f08c379a00000000000000000000000000000000000000000000000000000000081526004016121d7906134bb565b60405180910390fd5b50505050565b606060405180602001604052806000815250905090565b606061220882611b6c565b612247576040517f08c379a000000000000000000000000000000000000000000000000000000000815260040161223e9061377b565b60405180910390fd5b60006122516121e6565b90506000815111612271576040518060200160405280600081525061229c565b8061227b84612620565b60405160200161228c92919061339c565b6040516020818303038152906040525b915050919050565b6122ad82611b6c565b6122ec576040517f08c379a00000000000000000000000000000000000000000000000000000000081526004016122e39061365b565b60405180910390fd5b806006600084815260200190815260200160002090805190602001906123139291906129a2565b505050565b6123228383612781565b61232f6000848484612489565b61236e576040517f08c379a0000000000000000000000000000000000000000000000000000000008152600401612365906134bb565b60405180910390fd5b505050565b505050565b600061238382610f19565b905061239181600084612373565b61239c600083611be0565b6001600360008373ffffffffffffffffffffffffffffffffffffffff1673ffffffffffffffffffffffffffffffffffffffff16815260200190815260200160002060008282546123ec9190613993565b925050819055506002600083815260200190815260200160002060006101000a81549073ffffffffffffffffffffffffffffffffffffffff021916905581600073ffffffffffffffffffffffffffffffffffffffff168273ffffffffffffffffffffffffffffffffffffffff167fddf252ad1be2c89b69c2b068fc378daa952ba7f163c4a11628f55a4df523b3ef60405160405180910390a45050565b60006124aa8473ffffffffffffffffffffffffffffffffffffffff1661294f565b15612613578373ffffffffffffffffffffffffffffffffffffffff1663150b7a026124d3611bd8565b8786866040518563ffffffff1660e01b81526004016124f59493929190613412565b602060405180830381600087803b15801561250f57600080fd5b505af192505050801561254057506040513d601f19601f8201168201806040525081019061253d9190612e65565b60015b6125c3573d8060008114612570576040519150601f19603f3d011682016040523d82523d6000602084013e612575565b606091505b506000815114156125bb576040517f08c379a00000000000000000000000000000000000000000000000000000000081526004016125b2906134bb565b60405180910390fd5b805181602001fd5b63150b7a0260e01b7bffffffffffffffffffffffffffffffffffffffffffffffffffffffff1916817bffffffffffffffffffffffffffffffffffffffffffffffffffffffff191614915050612618565b600190505b949350505050565b60606000821415612668576040518060400160405280600181526020017f3000000000000000000000000000000000000000000000000000000000000000815250905061277c565b600082905060005b6000821461269a57808061268390613ae0565b915050600a826126939190613962565b9150612670565b60008167ffffffffffffffff8111156126b6576126b5613c16565b5b6040519080825280601f01601f1916602001820160405280156126e85781602001600182028036833780820191505090505b5090505b60008514612775576001826127019190613993565b9150600a856127109190613b29565b603061271c919061390c565b60f81b81838151811061273257612731613be7565b5b60200101907effffffffffffffffffffffffffffffffffffffffffffffffffffffffffffff1916908160001a905350600a8561276e9190613962565b94506126ec565b8093505050505b919050565b600073ffffffffffffffffffffffffffffffffffffffff168273ffffffffffffffffffffffffffffffffffffffff1614156127f1576040517f08c379a00000000000000000000000000000000000000000000000000000000081526004016127e89061367b565b60405180910390fd5b6127fa81611b6c565b1561283a576040517f08c379a0000000000000000000000000000000000000000000000000000000008152600401612831906134fb565b60405180910390fd5b61284660008383612373565b6001600360008473ffffffffffffffffffffffffffffffffffffffff1673ffffffffffffffffffffffffffffffffffffffff1681526020019081526020016000206000828254612896919061390c565b92505081905550816002600083815260200190815260200160002060006101000a81548173ffffffffffffffffffffffffffffffffffffffff021916908373ffffffffffffffffffffffffffffffffffffffff160217905550808273ffffffffffffffffffffffffffffffffffffffff16600073ffffffffffffffffffffffffffffffffffffffff167fddf252ad1be2c89b69c2b068fc378daa952ba7f163c4a11628f55a4df523b3ef60405160405180910390a45050565b600080823b905060008111915050919050565b50805461296e90613a7d565b6000825580601f10612980575061299f565b601f01602090049060005260206000209081019061299e9190612a28565b5b50565b8280546129ae90613a7d565b90600052602060002090601f0160209004810192826129d05760008555612a17565b82601f106129e957805160ff1916838001178555612a17565b82800160010185558215612a17579182015b82811115612a165782518255916020019190600101906129fb565b5b509050612a249190612a28565b5090565b5b80821115612a41576000816000905550600101612a29565b5090565b6000612a58612a538461383b565b613816565b90508083825260208201905082856020860282011115612a7b57612a7a613c4a565b5b60005b85811015612aab5781612a918882612c17565b845260208401935060208301925050600181019050612a7e565b5050509392505050565b6000612ac8612ac384613867565b613816565b905082815260208101848484011115612ae457612ae3613c4f565b5b612aef848285613a3b565b509392505050565b6000612b0a612b0584613898565b613816565b905082815260208101848484011115612b2657612b25613c4f565b5b612b31848285613a3b565b509392505050565b600081359050612b4881614348565b92915050565b600082601f830112612b6357612b62613c45565b5b8135612b73848260208601612a45565b91505092915050565b600081359050612b8b8161435f565b92915050565b600081359050612ba081614376565b92915050565b600081519050612bb581614376565b92915050565b600082601f830112612bd057612bcf613c45565b5b8135612be0848260208601612ab5565b91505092915050565b600082601f830112612bfe57612bfd613c45565b5b8135612c0e848260208601612af7565b91505092915050565b600081359050612c268161438d565b92915050565b600060208284031215612c4257612c41613c59565b5b6000612c5084828501612b39565b91505092915050565b60008060408385031215612c7057612c6f613c59565b5b6000612c7e85828601612b39565b9250506020612c8f85828601612b39565b9150509250929050565b600080600060608486031215612cb257612cb1613c59565b5b6000612cc086828701612b39565b9350506020612cd186828701612b39565b9250506040612ce286828701612c17565b9150509250925092565b60008060008060808587031215612d0657612d05613c59565b5b6000612d1487828801612b39565b9450506020612d2587828801612b39565b9350506040612d3687828801612c17565b925050606085013567ffffffffffffffff811115612d5757612d56613c54565b5b612d6387828801612bbb565b91505092959194509250565b60008060408385031215612d8657612d85613c59565b5b6000612d9485828601612b39565b9250506020612da585828601612b7c565b9150509250929050565b60008060408385031215612dc657612dc5613c59565b5b6000612dd485828601612b39565b9250506020612de585828601612c17565b9150509250929050565b600060208284031215612e0557612e04613c59565b5b600082013567ffffffffffffffff811115612e2357612e22613c54565b5b612e2f84828501612b4e565b91505092915050565b600060208284031215612e4e57612e4d613c59565b5b6000612e5c84828501612b91565b91505092915050565b600060208284031215612e7b57612e7a613c59565b5b6000612e8984828501612ba6565b91505092915050565b600060208284031215612ea857612ea7613c59565b5b6000612eb684828501612c17565b91505092915050565b60008060408385031215612ed657612ed5613c59565b5b6000612ee485828601612c17565b925050602083013567ffffffffffffffff811115612f0557612f04613c54565b5b612f1185828601612be9565b9150509250929050565b612f24816139c7565b82525050565b612f33816139d9565b82525050565b6000612f44826138c9565b612f4e81856138df565b9350612f5e818560208601613a4a565b612f6781613c5e565b840191505092915050565b6000612f7d826138d4565b612f8781856138f0565b9350612f97818560208601613a4a565b612fa081613c5e565b840191505092915050565b6000612fb6826138d4565b612fc08185613901565b9350612fd0818560208601613a4a565b80840191505092915050565b6000612fe9601b836138f0565b9150612ff482613c6f565b602082019050919050565b600061300c6032836138f0565b915061301782613c98565b604082019050919050565b600061302f6026836138f0565b915061303a82613ce7565b604082019050919050565b6000613052601c836138f0565b915061305d82613d36565b602082019050919050565b6000613075602d836138f0565b915061308082613d5f565b604082019050919050565b60006130986024836138f0565b91506130a382613dae565b604082019050919050565b60006130bb6019836138f0565b91506130c682613dfd565b602082019050919050565b60006130de602b836138f0565b91506130e982613e26565b604082019050919050565b6000613101602c836138f0565b915061310c82613e75565b604082019050919050565b6000613124601a836138f0565b915061312f82613ec4565b602082019050919050565b60006131476024836138f0565b915061315282613eed565b604082019050919050565b600061316a6038836138f0565b915061317582613f3c565b604082019050919050565b600061318d602a836138f0565b915061319882613f8b565b604082019050919050565b60006131b06029836138f0565b91506131bb82613fda565b604082019050919050565b60006131d3602e836138f0565b91506131de82614029565b604082019050919050565b60006131f66020836138f0565b915061320182614078565b602082019050919050565b60006132196031836138f0565b9150613224826140a1565b604082019050919050565b600061323c602c836138f0565b9150613247826140f0565b604082019050919050565b600061325f6015836138f0565b915061326a8261413f565b602082019050919050565b60006132826020836138f0565b915061328d82614168565b602082019050919050565b60006132a5601f836138f0565b91506132b082614191565b602082019050919050565b60006132c86029836138f0565b91506132d3826141ba565b604082019050919050565b60006132eb6014836138f0565b91506132f682614209565b602082019050919050565b600061330e602f836138f0565b915061331982614232565b604082019050919050565b6000613331601b836138f0565b915061333c82614281565b602082019050919050565b60006133546021836138f0565b915061335f826142aa565b604082019050919050565b60006133776031836138f0565b9150613382826142f9565b604082019050919050565b61339681613a31565b82525050565b60006133a88285612fab565b91506133b48284612fab565b91508190509392505050565b60006020820190506133d56000830184612f1b565b92915050565b60006060820190506133f06000830186612f1b565b6133fd6020830185612f1b565b61340a604083018461338d565b949350505050565b60006080820190506134276000830187612f1b565b6134346020830186612f1b565b613441604083018561338d565b81810360608301526134538184612f39565b905095945050505050565b60006020820190506134736000830184612f2a565b92915050565b600060208201905081810360008301526134938184612f72565b905092915050565b600060208201905081810360008301526134b481612fdc565b9050919050565b600060208201905081810360008301526134d481612fff565b9050919050565b600060208201905081810360008301526134f481613022565b9050919050565b6000602082019050818103600083015261351481613045565b9050919050565b6000602082019050818103600083015261353481613068565b9050919050565b600060208201905081810360008301526135548161308b565b9050919050565b60006020820190508181036000830152613574816130ae565b9050919050565b60006020820190508181036000830152613594816130d1565b9050919050565b600060208201905081810360008301526135b4816130f4565b9050919050565b600060208201905081810360008301526135d481613117565b9050919050565b600060208201905081810360008301526135f48161313a565b9050919050565b600060208201905081810360008301526136148161315d565b9050919050565b6000602082019050818103600083015261363481613180565b9050919050565b60006020820190508181036000830152613654816131a3565b9050919050565b60006020820190508181036000830152613674816131c6565b9050919050565b60006020820190508181036000830152613694816131e9565b9050919050565b600060208201905081810360008301526136b48161320c565b9050919050565b600060208201905081810360008301526136d48161322f565b9050919050565b600060208201905081810360008301526136f481613252565b9050919050565b6000602082019050818103600083015261371481613275565b9050919050565b6000602082019050818103600083015261373481613298565b9050919050565b60006020820190508181036000830152613754816132bb565b9050919050565b60006020820190508181036000830152613774816132de565b9050919050565b6000602082019050818103600083015261379481613301565b9050919050565b600060208201905081810360008301526137b481613324565b9050919050565b600060208201905081810360008301526137d481613347565b9050919050565b600060208201905081810360008301526137f48161336a565b9050919050565b6000602082019050613810600083018461338d565b92915050565b6000613820613831565b905061382c8282613aaf565b919050565b6000604051905090565b600067ffffffffffffffff82111561385657613855613c16565b5b602082029050602081019050919050565b600067ffffffffffffffff82111561388257613881613c16565b5b61388b82613c5e565b9050602081019050919050565b600067ffffffffffffffff8211156138b3576138b2613c16565b5b6138bc82613c5e565b9050602081019050919050565b600081519050919050565b600081519050919050565b600082825260208201905092915050565b600082825260208201905092915050565b600081905092915050565b600061391782613a31565b915061392283613a31565b9250827fffffffffffffffffffffffffffffffffffffffffffffffffffffffffffffffff0382111561395757613956613b5a565b5b828201905092915050565b600061396d82613a31565b915061397883613a31565b92508261398857613987613b89565b5b828204905092915050565b600061399e82613a31565b91506139a983613a31565b9250828210156139bc576139bb613b5a565b5b828203905092915050565b60006139d282613a11565b9050919050565b60008115159050919050565b60007fffffffff0000000000000000000000000000000000000000000000000000000082169050919050565b600073ffffffffffffffffffffffffffffffffffffffff82169050919050565b6000819050919050565b82818337600083830152505050565b60005b83811015613a68578082015181840152602081019050613a4d565b83811115613a77576000848401525b50505050565b60006002820490506001821680613a9557607f821691505b60208210811415613aa957613aa8613bb8565b5b50919050565b613ab882613c5e565b810181811067ffffffffffffffff82111715613ad757613ad6613c16565b5b80604052505050565b6000613aeb82613a31565b91507fffffffffffffffffffffffffffffffffffffffffffffffffffffffffffffffff821415613b1e57613b1d613b5a565b5b600182019050919050565b6000613b3482613a31565b9150613b3f83613a31565b925082613b4f57613b4e613b89565b5b828206905092915050565b7f4e487b7100000000000000000000000000000000000000000000000000000000600052601160045260246000fd5b7f4e487b7100000000000000000000000000000000000000000000000000000000600052601260045260246000fd5b7f4e487b7100000000000000000000000000000000000000000000000000000000600052602260045260246000fd5b7f4e487b7100000000000000000000000000000000000000000000000000000000600052603260045260246000fd5b7f4e487b7100000000000000000000000000000000000000000000000000000000600052604160045260246000fd5b600080fd5b600080fd5b600080fd5b600080fd5b600080fd5b6000601f19601f8301169050919050565b7f436f756e7465723a2064656372656d656e74206f766572666c6f770000000000600082015250565b7f4552433732313a207472616e7366657220746f206e6f6e20455243373231526560008201527f63656976657220696d706c656d656e7465720000000000000000000000000000602082015250565b7f4f776e61626c653a206e6577206f776e657220697320746865207a65726f206160008201527f6464726573730000000000000000000000000000000000000000000000000000602082015250565b7f4552433732313a20746f6b656e20616c7265616479206d696e74656400000000600082015250565b7f4e6f7420536f6c64206f757420796574202d2043616e6e6f74206275726e207560008201527f6e74696c2073656c6c206f757400000000000000000000000000000000000000602082015250565b7f4552433732313a207472616e7366657220746f20746865207a65726f2061646460008201527f7265737300000000000000000000000000000000000000000000000000000000602082015250565b7f4552433732313a20617070726f766520746f2063616c6c657200000000000000600082015250565b7f536574546f6b656e55524920636f6d696e672066726f6d20556e617574686f7260008201527f697a656420536f75726365000000000000000000000000000000000000000000602082015250565b7f4552433732313a206f70657261746f7220717565727920666f72206e6f6e657860008201527f697374656e7420746f6b656e0000000000000000000000000000000000000000602082015250565b7f4f7261636c652041646472657373204e6f742073657420796574000000000000600082015250565b7f4d696e7420636f6d696e672066726f6d20556e617574686f72697a656420536f60008201527f7572636500000000000000000000000000000000000000000000000000000000602082015250565b7f4552433732313a20617070726f76652063616c6c6572206973206e6f74206f7760008201527f6e6572206e6f7220617070726f76656420666f7220616c6c0000000000000000602082015250565b7f4552433732313a2062616c616e636520717565727920666f7220746865207a6560008201527f726f206164647265737300000000000000000000000000000000000000000000602082015250565b7f4552433732313a206f776e657220717565727920666f72206e6f6e657869737460008201527f656e7420746f6b656e0000000000000000000000000000000000000000000000602082015250565b7f45524337323155524953746f726167653a2055524920736574206f66206e6f6e60008201527f6578697374656e7420746f6b656e000000000000000000000000000000000000602082015250565b7f4552433732313a206d696e7420746f20746865207a65726f2061646472657373600082015250565b7f45524337323155524953746f726167653a2055524920717565727920666f722060008201527f6e6f6e6578697374656e7420746f6b656e000000000000000000000000000000602082015250565b7f4552433732313a20617070726f76656420717565727920666f72206e6f6e657860008201527f697374656e7420746f6b656e0000000000000000000000000000000000000000602082015250565b7f496e76616c696420746f6b656e204944206c6973740000000000000000000000600082015250565b7f4f776e61626c653a2063616c6c6572206973206e6f7420746865206f776e6572600082015250565b7f53656e6465722f5265636965766572206973205a65726f204164647265737300600082015250565b7f4552433732313a207472616e73666572206f6620746f6b656e2074686174206960008201527f73206e6f74206f776e0000000000000000000000000000000000000000000000602082015250565b7f546f6b656e20446f6573206e6f74206578697374000000000000000000000000600082015250565b7f4552433732314d657461646174613a2055524920717565727920666f72206e6f60008201527f6e6578697374656e7420746f6b656e0000000000000000000000000000000000602082015250565b7f466163746f72792041646472657373204e6f7420736574207965740000000000600082015250565b7f4552433732313a20617070726f76616c20746f2063757272656e74206f776e6560008201527f7200000000000000000000000000000000000000000000000000000000000000602082015250565b7f4552433732313a207472616e736665722063616c6c6572206973206e6f74206f60008201527f776e6572206e6f7220617070726f766564000000000000000000000000000000602082015250565b614351816139c7565b811461435c57600080fd5b50565b614368816139d9565b811461437357600080fd5b50565b61437f816139e5565b811461438a57600080fd5b50565b61439681613a31565b81146143a157600080fd5b5056fe68747470733a2f2f676174657761792e70696e6174612e636c6f75642f697066732f516d5a78534731474a776648644c7738787456636a3443634c47384656485235457a66436a76713154646f463763a2646970667358221220e993955ce545adb7b40c9e2a14856ab3ca883244e224b7c4e3c7f5c58a3598e164736f6c63430008070033",
  "linkReferences": {},
  "deployedLinkReferences": {}
}